:020000040800F2
:10000000680F002011020008190200081B020008F6
:100010001D0200081F020008210200080000000065
:1000200000000000000000000000000023020008A3
:10003000250200080000000027020008B90D000892
:100040002B0200082B0200082B0200082B020008DC
:100050002B0200082B0200082B0200082B020008CC
:100060002B0200082B0200082B0200082B020008BC
:100070002B0200082B0200082B0200082B020008AC
:100080002B0200082B0200082B0200082B0200089C
:100090002B0200082B0200082B0200082B0200088C
:1000A0002B0200082B0200082B0200082B0200087C
:1000B0002B0200082B0200082B0200082B0200086C
:1000C0002B0200082B0200082B0200082B0200085C
:1000D0002B0200082B020008250E0008750E0008F0
:1000E0002B0200082B0200082B0200082B0200083C
:1000F0002B020008000000002B0200082B02000861
:100100002B0200082B0200082B0200082B0200081B
:100110002B0200082B0200082B0200080000000040
:100120002B02000800F002F800F062F80AA090E844
:10013000000C82448344AAF10107DA4501D100F0A2
:1001400057F8AFF2090EBAE80F0013F0010F18BF0D
:10015000FB1A43F001031847680F0000880F0000E6
:100160000A444FF0000C10F8013B13F0070408BFDD
:1001700010F8014B1D1108BF10F8015B641E05D07B
:1001800010F8016B641E01F8016BF9D113F0080F30
:100190001EBF10F8014BAD1C0C1B09D16D1E58BFC2
:1001A00001F801CBFAD505E014F8016B01F8016BF9
:1001B0006D1EF9D59142D6D370470000002300246C
:1001C00000250026103A28BF78C1FBD8520728BF67
:1001D00030C148BF0B607047642900F0AD807329BF
:1001E00000F07181002070471FB51FBD10B510BD14
:1001F00000F06DF91146FFF7F7FF00F0E1FE00F0A7
:100200008BF903B4FFF7F2FF03BC00F093F9000091
:100210000948804709480047FEE7FEE7FEE7FEE79A
:10022000FEE7FEE7FEE7FEE7FEE7FEE704480549D6
:10023000054A064B70470000D90D0008250100084B
:1002400068090020680F0020680B0020680B002060
:100250000FB41CB5084B06AA7B446946009005986C
:1002600000F007F904460020694600F015F9204621
:100270001CBC5DF814FB00003D0200002DE9F041BC
:100280000E460446002020622046E168884730B3CD
:10029000252805D0D4E901219047206A401CF2E7C7
:1002A000E168204600278847050018D0A5F14100E5
:1002B000192802D820354FF40067324629462046D7
:1002C0002760FFF789FF40B1012804D0F61D26F012
:1002D00007060836D8E7361DD6E72846DAE7206A4B
:1002E000BDE8F08170B50C460546012A05D0287896
:1002F000800600D5EA69002302E0012305E05B1CCB
:10030000934202D2E05C0028F9D1A869E618C01A2D
:10031000A861286A184428622846AFF3008004E0E8
:10032000D5E9012114F8010B9047B442F8D32846CF
:10033000AFF3008070BD00002DE9F04106460024B7
:1003400010687529314616A510D0AFF3008000283B
:1003500002DA404213A507E031688A0701D512A5E9
:1003600002E0490704D511A5012401E0AFF30080A4
:1003700000210A2206F1240709E0B0FBF2FCB0FBE1
:10038000F2F302FB1C00303078541846491C002858
:10039000F3D123462A463046BDE8F04100F00BB8C1
:1003A000000000002D0000002B00000020000000D5
:1003B0007047704770472DE9F0470D4699469246C1
:1003C000044600F124080168880604D5E06921F09C
:1003D0001001216000E00120A84201DD471B00E080
:1003E0000027A1697A1902EB0900081AA061207898
:1003F000C00602D42046AFF30080002608E0D4E90E
:1004000001211AF806009047206A401C761C2062E1
:100410004E45F4DB2078C0060AD52046AFF30080B5
:1004200006E0D4E9012130209047206A401C206278
:10043000381EA7F10107F4DC07E0D4E9012118F820
:1004400005009047206A401C2062281EA5F1010586
:10045000F3DC2046AFF300802078000602D50220AE
:10046000BDE8F0870120FBE701694A1C02610878BA
:10047000704700B58FB0CDE90131002105910549E4
:100480007944CDE9031011466846FFF7F7FE0FB037
:1004900000BD0000E5FFFFFF0A6802F8010B0A60DB
:1004A000704710B5436913B1AFF3008001E0FFF767
:1004B00019FF012010BD127800F124010A700022FA
:1004C0004A700122EDE711684FF0FF32E9E7754607
:1004D00000F02CF8AE4605006946534620F00700B0
:1004E000854618B020B5FFF7A1FEBDE820404FF0CB
:1004F00000064FF000074FF000084FF0000BAC462D
:10050000ACE8C009ACE8C009ACE8C009ACE8C00977
:1005100021F007018D46704710B50446AFF3008007
:100520002046BDE81040FFF76CBE00000048704751
:10053000B806002001491820ABBEFEE726000200E5
:100540007047000070B543F2000CC4F2020C0120A9
:10055000A1F1010E0023CCF8080000BF00201821F3
:10056000744600BF14F8015F8D40083911F1080688
:1005700040EA0500F6D10133032B0EF1040ECCF84E
:100580000000EBD1DCF800000021002320FA01F686
:10059000F6B20831202983EA0603F7D1981A18BF6A
:1005A000012070BD43F61C00C4F20200016841F452
:1005B0008051016070470000014645F25340C3F28C
:1005C0004D30086044F63240C3F23150486045F285
:1005D0003220C5F245408860362200200A737047F9
:1005E000B0B590B040F29060C2F20000036881881C
:1005F000C48840F20850C2F2000002AD009100F53C
:100600008C7206A128460194FFF722FE8DF838006F
:10061000C0B2294600F0A4FC10B0B0BD25732C2256
:100620002573222C25642C25640D0A0080B540F228
:100630000851C2F2000191F81001E03100F090FC85
:1006400080BD000080B540F20851C2F2000191F86F
:10065000D800A83100F084FC80BD00002DE9F04FE7
:10066000A1B040F20004C2F200046078A178884290
:1006700000F0BA80E07804EBC111043100F082FC94
:10068000A07840F2A065C1010E3162186158C2F233
:1006900000052960516893686960117B04EBC01004
:1006A00029730E3000211EAAAB6000BF0C291CBFAD
:1006B000435C535401310D29F8D12A7B1EA90C202B
:1006C000FFF740FF40F20451C2F200010870C8B1C8
:1006D0001320089040F6215746F6496046F66C1103
:1006E00046F6430247F26B33C0F20A07C6F27610B1
:1006F000C2F26401C6F26532C6F67553009700F087
:10070000DDF863E02878012828D128796979AA7969
:10071000EB1D00F007FB08BBEA7950A110A8FFF71A
:1007200097FD8DF8700010980DF1580B0B901198F3
:100730009BE8C00F0A90DDE91C010DF1480ECDE9E0
:10074000080102A89EE80C5080E8C007DDE90A1005
:10075000CDE900CECDF81CB000F0B0F82878022822
:100760002BD10DF13300FFF727FF30BB3FA110A8BD
:100770000DF13302FFF76CFD8DF8700010980DF14C
:10078000600B0B9011989BE8000F0A90DDE91C01AB
:1007900012AF0DF1540ECDE9080104A88CCF9EE8EC
:1007A000405080E80007DDE90A10CDE90076CDE988
:1007B00002CECDF81CB000F081F82878032805D1CE
:1007C0006978E8782A1D00F093F9F8B1A0782178CB
:1007D000431C6278DFB28F424FF0000028BF03460F
:1007E0008A42A37028BF607040F65A15C2F2000515
:1007F000287840B16178E07804EBC111043100F051
:10080000C1FB0020287021B0BDE8F08F1F200890A8
:1008100046F6207046F66F6146F2725240F67957FE
:10082000C6F26B10C6F27351C7F27302C0F20A0728
:10083000CDE90021029046F6461046F2771145F2C6
:10084000205247F26143C6F67250C6F27251C6F2A8
:100850007042C2F26503039751E700BF56616C75A1
:1008600065203D2025640D0A0000000025730D0A57
:100870000000000080B540F2000CC2F2000C8CF8C1
:1008800003205AB19CF8013001390CEBC313033338
:1008900011F801EF013A03F801EFF9D1012805D170
:1008A0009CF8010001308CF8010080BD40F65A1020
:1008B000C2F200000121017080BD00002DE9F04F5F
:1008C0009DB0DDE92E4C0F9040F20850DDE92C8EF2
:1008D000DDE92AA9DDE9286BDDE926571293CDE988
:1008E0001B4CE3B2C2F2000001AC1091119200F572
:1008F000A87214A1204613951497CDE9156BCDE984
:1009000017A9CDE9198EFFF7A3FC8DF83400C0B20A
:10091000214600F025FB00200090009845F2E911E7
:10092000884207DC45F2EA100099013100910099F4
:100930008142F9DB9DF86C000FA900F011FB1DB09E
:10094000BDE8F08F25733D25640D0A0080B540F2A7
:100950000851C2F2000191F8300000F001FB80BDA7
:1009600080B540F20851C2F2000191F8A000703148
:1009700000F0F6FA80BD00004EF21000CEF200004A
:10098000016841F00101016070470000B0B543F615
:10099000044CC4F2020CDCF800E00023B3EB510F6E
:1009A0004EF48073CCF8003008BFB0BD4FEA510C54
:1009B000002300214FEA830E0EF1020432F8235087
:1009C000145B01339BB244EA05458CB2634501F1E7
:1009D000010140F82450EDD3B0BD0000B0B500F0E7
:1009E000A7F8E8B940F29C65C2F2000540F65C1435
:1009F0002868C2F200040821224600F027F828687F
:100A0000002100F03DF8286840F2AE62C2F2000218
:100A1000042100F04FF828680821224600F016F85B
:100A200040F29864C2F20004206840F65C12C2F200
:100A30000002082100F00AF8206840F2AE62C2F21B
:100A400000020421FFF7A2FFB0BD0000B0B50023F3
:100A5000B3EB910F08BFB0BD4FF6FC7C4FEA910E8F
:100A60000023C0F2030C00210CEA81040133055974
:100A70009BB2734501F101011551F5D3B0BD0000E2
:100A800043F60441C4F202010A6842F400720A60AB
:100A90000A6842F008020A60002202604869C00742
:100AA000FCD1086820F400700860086820F0080095
:100AB00008607047B0B50023B3EB510F08BFB0BD5D
:100AC0004FEA510C002300214FEA830E0EF102047D
:100AD00032F82350145B01339BB244EA05458CB2D3
:100AE000634501F1010140F82450EDD3B0BD000091
:100AF00001281BD180B582B0901E6FF00101EC4639
:100B000030F8023F0CEB01021BBA02311B0C062924
:100B10005380F5D140F29860C2F2000000686A4646
:100B20000421FFF733FF02B0BDE88040002070478A
:100B300043F60441C4F20201086840F205424CF653
:100B4000EF50C0F20322C8F6AB1088608A600868D4
:100B500010F0010018BF70474AF6BF60C8F69D400C
:100B6000C86002F11130C860086800F001007047E9
:100B700080B54EF21001CEF2000144F6D3530A685C
:100B8000C1F26203A0FB030342F006004FF0FF3204
:100B900002EB9312C1E90002FFF7EEFE80BD0000F8
:100BA00080B500F057F800F001F880BD10B543F6AD
:100BB0001C00C4F20200016844F20C4441F001013F
:100BC00001600021C4F202010A6AC4F2000442F486
:100BD000E0620A620A6A42F4E0420A620A6822F0AB
:100BE00010020A600A6842F020020A600A6822F0D5
:100BF00040020A600A6842F080020A60816841F49B
:100C000000318160206840F400502060206820F4AA
:100C100080502060606820F480506060606820F43C
:100C200000506060206820F400402060122044F8EA
:100C3000040C206840F020002060206840F0040090
:100C40002060262000F0B0F9206840F00800206005
:100C500010BD000010B543F61C00C4F2020001688C
:100C600044F60C0441F00201016040F20041C4F27C
:100C700002014A6AC4F2000442F4E0624A624A6A2B
:100C800042F4E0424A620A6822F480120A600A686A
:100C900042F400120A600A6822F480020A600A68BC
:100CA00042F400020A60816841F48021816020687A
:100CB00040F400502060206820F48050206060687C
:100CC00020F480506060606820F40050606020680C
:100CD00020F400402060122044F8040C206840F00A
:100CE00020002060206840F004002060272000F0F1
:100CF0005BF9206840F00800206010BD43F61C003E
:100D0000C4F20200016841F0010101600020C4F258
:100D10000200016841F480610160016821F4006112
:100D20000160704780B501280FD0F0B9022924D0A6
:100D3000012924D000291CBF022080BD1020C4F24C
:100D400002000068C0F340101AE0481E02283CBFB1
:100D5000032080BD00291CBF022080BD012A06D0CF
:100D60004AB900F011F8002080BD012080BD00F0DC
:100D700017F8002080BD042080BD402000E0012045
:100D80001870002080BD00001820C4F20200016825
:100D900041F020010160016841F4001101607047D9
:100DA0001820C4F20200016841F4001101600168DA
:100DB00041F020010160704710B540F61C14C2F2EA
:100DC0000004206801300B28206038BF10BDFFF7F9
:100DD00045FC0020206010BD70470000B0B582B017
:100DE00043F224340025C0F203040195FFF71EFCF2
:100DF00001950199601C814206DA00BF0199013119
:100E0000019101998142F9DBFFF7EAFB0195019815
:100E1000A04205DA0198013001900198A042F9DB67
:100E200002B0B0BDB0B544F20044C4F20004206882
:100E3000800658BFB0BD40F61805C2F200056268D2
:100E4000287840F21871C2F200010A54421C2A703C
:100E500063680D2B09D10230D2B20A232870C0B2C8
:100E60008B5400F07DF800202870206820F02000CE
:100E70002060B0BDF0B581B044F60004C4F20004B7
:100E80002068800664D540F61915C2F20005606836
:100E9000297840F619034E1CC2F20003F2B25854EE
:100EA000D01810F8011C2E700A2924D110F8023C29
:100EB0000D2B07D110F8033C4B2B03D110F8043C49
:100EC0004F2B0DD00A2916D110F8023C0D2B12D150
:100ED00010F8033C522B0ED110F8043C4F2B0AD1D2
:100EE00040F61901C2F20001002000230026FFF79E
:100EF000C1FC2E7028E044290ED110F8023C502B82
:100F00000AD110F8033C492B06D140F66410C2F216
:100F100000000121017017E00A2915D140F664167E
:100F2000C2F20006317801290ED110F8020C0D280A
:100F30000AD140F61901C2F2000101200023002766
:100F4000FFF798FC2F703770206820F02000206099
:100F500001B0F0BD02681206FCD541607047000088
:100F600070B5002808BF70BD44F6000504464E1E4B
:100F7000C4F2000516F8011F2846FFF7EBFF013CFD
:100F8000F8D170BD70B5002808BF70BD44F20045AF
:100F900004464E1EC4F2000516F8011F2846FFF74E
:100FA000D9FF013CF8D170BD00F01F00012101FA0A
:100FB00000F04EF20411CEF200010860704700000C
:100FC0008EB04FF6687043F22435C0F21F00C0F2B5
:100FD0000305FFF7CDFDFFF7E3FDFFF78FFEFFF7FA
:100FE000E1FAFFF7FBFC00240D94FFF72BFB0D94B7
:100FF0000D98A84203DA0D9801300D90F8E7FFF73D
:10100000A5FC0D940D98A84203DA0D9801300D90BF
:10101000F8E7FFF7A5FC00200D900D98A84202DA32
:101020000D980130F8E7FFF7D9FE40F62014C2F220
:10103000000400BF40F65811C2F200010A88501C9B
:101040000880204616A1FFF703F984F830002068D5
:1010500004F1100ED4E90A960C909EE88150231DED
:101060000B960ECBD4E908B8D4E90C6A8DE8815010
:10107000DDE90B70CDE9086ACDE904B8CDF8189028
:101080000797FFF71BFC00200D900D98A842D1DABE
:101090000D9801300D900D98A842F9DBCAE700BF0A
:1010A000436F756E746572203D2025640D0A000043
:1010B0003139322E3136382E312E34004F4B00006C
:1010C000E010000800000020B806000060010008E1
:1010D00060110008B8060020B0080000BC0100083C
:1010E00002FF0A01FF01FF01FF01FF813201062B10
:1010F0004154720D0A320513BC10080828084154E7
:101100002B5253543B8A04380C28474D52387A08E6
:10111000380B2A4531A98A067008092343495043F0
:101120004C4F53453FBA0D38000C1F535441525495
:101130003D2255445022CA11380426454E44299474
:1011400029381AB0041DC801C901F2120835E0019E
:1011500008045AFF0121200922AA44336655BB77AF
:0400000508000211DC
:00000001FF
