:020000040800F2
:10000000580F0020150200081D0200081F020008FA
:100010002102000823020008250200080000000059
:10002000000000000000000000000000270200089F
:1000300029020008000000002B020008910E0008B1
:100040002F0200082F0200082F0200082F020008CC
:100050002F0200082F0200082F0200082F020008BC
:100060002F0200082F0200082F0200082F020008AC
:100070002F0200082F0200082F0200082F0200089C
:100080002F0200082F0200082F0200082F0200088C
:100090002F0200082F0200082F0200082F0200087C
:1000A0002F0200082F0200082F0200082F0200086C
:1000B0002F0200082F0200082F0200082F0200085C
:1000C0002F0200082F0200082F0200082F0200084C
:1000D0002F0200082F020008FD0E00084D0F000837
:1000E0002F0200082F0200082F0200082F0200082C
:1000F0002F020008000000002F0200082F02000855
:100100002F0200082F0200082F0200082F0200080B
:100110002F0200082F0200082F0200080000000034
:100120002F02000800F002F800F065F80AA090E83D
:10013000000C82448344AAF10107DA4501D100F0A2
:100140005AF8AFF2090EBAE80F0013F0010F18BF0A
:10015000FB1A43F00103184788100000A8100000A4
:100160000A444FF0000C10F8013B13F0070408BFDD
:1001700010F8014B1D1108BF10F8015B641E05D07B
:1001800010F8016B641E01F8016BF9D113F0080F30
:100190001EBF10F8014BAD1C0C1B09D16D1E58BFC2
:1001A00001F801CBFAD505E014F8016B01F8016BF9
:1001B0006D1EF9D59142D6D370470000002300246C
:1001C00000250026103A28BF78C1FBD8520728BF67
:1001D00030C148BF0B607047642900F0A1807829C6
:1001E00000F0DA80732900F01682002070471FB5F6
:1001F0001FBD10B510BD00F012FA1146FFF7F7FF52
:1002000000F04AFF00F030FA03B4FFF7F2FF03BC3E
:1002100000F038FA0948804709480047FEE7FEE742
:10022000FEE7FEE7FEE7FEE7FEE7FEE7FEE7FEE7A6
:1002300004480549054A064B70470000B10E000806
:100240002501000858090020580F0020580B0020F5
:10025000580B00200FB41CB5084B06AA7B44694616
:100260000090059800F0ADF904460020694600F0C2
:10027000BBF920461CBC5DF814FB0000890300009C
:1002800070B5044685690068C10601D5302600E0D6
:100290002026C00707D070BDD4E901213046904721
:1002A000206A401C20626D1EF6D570BD70B50446F4
:1002B00085690078C00707D170BDD4E901212020ED
:1002C0009047206A401C20626D1EF6D570BD70B547
:1002D0000C460546012A05D02878800600D5EA6933
:1002E000002302E0012305E05B1C934202D2E05CA4
:1002F0000028F9D1A869E618C01AA861286A18442C
:1003000028622846FFF7BCFF04E0D5E9012114F874
:10031000010B9047B442F8D32846FFF7C7FF70BDE2
:100320002DE9F0410646002410687529314616A5CE
:1003300010D0AFF30080002802DA404213A507E096
:1003400031688A0701D512A502E0490704D511A535
:10035000012401E0AFF3008000210A2206F1240706
:1003600009E0B0FBF2FCB0FBF2F302FB1C00303002
:1003700078541846491C0028F3D123462A463046B3
:10038000BDE8F04100F0BEB8000000002D00000004
:100390002B0000002000000070B504460D462146E9
:1003A0001068AFF300802188090502D50F4A7A440E
:1003B00002E00E4A7A440E32002104F1240305E0E3
:1003C00000F00F060009965D5E54491C0028F7D125
:1003D00020780023000704D5702D02D009B1022334
:1003E00011322046BDE8704000F08CB8BA0D000014
:1003F0002DE9F0474FF0000A89460446C0F820A0D6
:100400002046E1688847002876D0252806D0D4E920
:1004100001219047206A401C2062F1E7E1682046F4
:1004200000258847C4F81CA006460027C4F818A079
:100430002A2E09D0304600F092FE38B304EB87082C
:10044000303EC8F8186019E059F8041B204604EB48
:1004500087029161E1688847012F064618D1E0695B
:10046000002820DA25F020051DE0D8F8180000EB60
:10047000800006EB40003038C8F818002046E168DC
:100480008847064600F06BFE0028EED1012F0AD007
:100490002E2E08D12046E16888477F1C0646022F91
:1004A00045F02005C4DBA069002803DA404245F08E
:1004B0000105A061E80701D025F01005B6B1A6F14D
:1004C0004100192802D8203645F400654A463146D5
:1004D000204625604D46FFF77FFE58B1012806D023
:1004E000ED1D25F0070000F1080989E704E005F19A
:1004F000040985E730468AE7206ABDE8F08770473F
:10050000704770472DE9F0470D46994692460446DC
:1005100000F124080168880604D5E06921F0100183
:10052000216000E00120A84201DD471B00E0002718
:10053000A1697A1902EB0900081AA0612078C006A7
:1005400002D42046FFF79CFE002608E0D4E90121F2
:100550001AF806009047206A401C761C20624E451F
:10056000F4DB2078C0060AD52046FFF789FE06E0B6
:10057000D4E9012130209047206A401C2062381EB7
:10058000A7F10107F4DC07E0D4E9012118F8050020
:100590009047206A401C2062281EA5F10105F3DC6B
:1005A0002046FFF783FE2078000602D50220BDE832
:1005B000F0870120FBE7000001694A1C026108780E
:1005C000704700B58FB0CDE9013100210591054993
:1005D0007944CDE9031011466846FFF709FF0FB0D3
:1005E00000BD0000E5FFFFFF0A6802F8010B0A608A
:1005F000704710B5436913B1AFF3008001E0FFF716
:1006000066FE012010BD127800F124010A7000225C
:100610004A700122EDE711684FF0FF32E9E77546B5
:1006200000F02CF8AE4605006946534620F007005E
:10063000854618B020B5FFF7FBFDBDE820404FF020
:1006400000064FF000074FF000084FF0000BAC46DB
:10065000ACE8C009ACE8C009ACE8C009ACE8C00926
:1006600021F007018D46704710B50446AFF30080B6
:100670002046BDE81040FFF7C7BD000000487047A6
:10068000B006002001491820ABBEFEE7260002009C
:100690007047000070B543F2000CC4F2020C012058
:1006A000A1F1010E0023CCF8080000BF00201821A2
:1006B000744600BF14F8015F8D40083911F1080637
:1006C00040EA0500F6D10133032B0EF1040ECCF8FD
:1006D0000000EBD1DCF800000021002320FA01F635
:1006E000F6B20831202983EA0603F7D1981A18BF19
:1006F000012070BD43F61C00C4F20200016841F401
:100700008051016070470000014645F25340C3F23A
:100710004D30086044F63240C3F23150486045F233
:100720003220C5F245408860362200200A737047A7
:10073000B0B590B040F29060C2F2000003688188CA
:10074000C48840F20850C2F2000002AD009100F5EA
:100750008C7206A128460194FFF77CFD8DF83800C5
:10076000C0B2294600F068FC10B0B0BD25732C2241
:100770002573222C25642C25640D0A0080B540F2D7
:100780000851C2F2000191F81001E03100F054FC70
:1007900080BD000080B540F20851C2F2000191F81E
:1007A000D800A83100F048FC80BD00002DE9F04FD2
:1007B000A1B040F20004C2F200046078A17888423F
:1007C00000F0B980E07804EBC111043100F046FC80
:1007D000A07840F29C65C1010E3162186158C2F2E6
:1007E00000052960516893686960117B04EBC010B3
:1007F00029730E3000211EAAAB6000BF0C291CBF5C
:10080000435C535401310D29F8D12A7B1EA90C20D9
:10081000FFF740FF40F20451C2F200010870C8B176
:100820001320089040F6215746F6496046F66C11B1
:1008300046F6430247F26B33C0F20A07C6F276105F
:10084000C2F26401C6F26532C6F67553009700F035
:10085000FFF862E02878012828D128796979AA79F7
:10086000EB1D00F0CBFA08BBEA795BA110A8FFF7FB
:10087000F1FC8DF8700010980DF1580B0B90119849
:100880009BE8C00F0A90DDE91C010DF1480ECDE98F
:10089000080102A89EE80C5080E8C007DDE90A10B4
:1008A000CDE900CECDF81CB000F0D2F828780228AF
:1008B00029D10CA8FFF728FF28BB4BA110A80CAA30
:1008C000FFF7C8FC8DF8700010980DF1600B0B90CD
:1008D00011989BE8000F0A90DDE91C0112AF0DF1A1
:1008E000540ECDE9080104A88CCF9EE8405080E862
:1008F0000007DDE90A10CDE90076CDE902CECDF89A
:100900001CB000F0A5F82878032806D16978E878AB
:100910002A1D0CAB00F044F9F8B1A0782178431CF3
:100920006278DFB28F424FF0000028BF03468A4250
:10093000A37028BF607040F65015C2F200052878F9
:1009400040B16178E07804EBC111043100F086FB1E
:100950000020287021B0BDE8F08FE878022807D089
:1009600001280CD0E0B941F2B810C0F600000AE04E
:10097000DDE90C231EA110A8FFF76CFC0EE041F28C
:10098000CC10C0F60000016842688368C76800693F
:100990001091119212931397149013208DF87000F8
:1009A00010980DF1540E0B90DDE91C500DF1640A06
:1009B0009EE840589AE80007CDE9085002A811AF18
:1009C00080E800580B988ECFCDE90076CDE90589F7
:1009D000CDF81CA03BE700BF56616C7565203D203B
:1009E00025640D0A0000000025730D0A00000000B8
:1009F000524541443A20307825345820203078251B
:100A000034580D0A0000000080B540F2000CC2F21C
:100A1000000C8CF803205AB19CF8013001390CEB22
:100A2000C313033311F801EF013A03F801EFF9D1D1
:100A3000012805D19CF8010001308CF8010080BD2F
:100A400040F65010C2F200000121017080BD00008C
:100A50002DE9F04F9DB0DDE92E4C0F9040F208508B
:100A6000DDE92C8EDDE92AA9DDE9286BDDE92657D1
:100A70001293CDE91B4CE3B2C2F2000001AC10911D
:100A8000119200F5A87214A1204613951497CDE990
:100A9000156BCDE917A9CDE9198EFFF7DBFB8DF8B2
:100AA0003400C0B2214600F0C7FA00200090009840
:100AB00045F2E911884207DC45F2EA10009901315C
:100AC000009100998142F9DB9DF86C000FA900F0BC
:100AD000B3FA1DB0BDE8F08F25733D25640D0A0003
:100AE0004EF21000CEF20000016841F001010160F9
:100AF0007047000080B500F087F880BDB0B50023D6
:100B0000B3EB910F08BFB0BD4FF6FC7C4FEA910EDE
:100B10000023C0F2030C00210CEA810401330559C3
:100B20009BB2734501F101011551F5D3B0BD000031
:100B300043F60441C4F202010A6842F400720A60FA
:100B40000A6842F008020A60002202604869C00791
:100B5000FCD1086820F400700860086820F00800E4
:100B600008607047B0B50023B3EB510F08BFB0BDAC
:100B70004FEA510C002300214FEA830E0EF10204CC
:100B800032F82350145B01339BB244EA05458CB222
:100B9000634501F1010140F82450EDD3B0BD0000E0
:100BA00080B582B0E0B1022822D0012828D1901E61
:100BB0006FF00101EC4600BF30F8023F0CEB010280
:100BC0001BBA02311B0C06295380F5D140F2986004
:100BD000C2F2000000686A460421FFF7C3FF0FE07D
:100BE00040F29860C2F200000068FFF7A1FF07E042
:100BF00040F29860C2F2000000681A46FFF77EFFDC
:100C0000002002B080BD000043F60441C4F202019E
:100C1000086840F205424CF6EF50C0F20322C8F6D5
:100C2000AB1088608A60086810F0010018BF704738
:100C30004AF6BF60C8F69D40C86002F11130C86036
:100C4000086800F00100704780B54EF21001CEF246
:100C5000000144F6D3530A68C1F26203A0FB030308
:100C600042F006004FF0FF3202EB9312C1E900029E
:100C7000FFF736FF80BD000080B500F057F800F0A8
:100C800001F880BD10B543F61C00C4F202000168F3
:100C900044F20C4441F0010101600021C4F2020160
:100CA0000A6AC4F2000442F4E0620A620A6A42F488
:100CB000E0420A620A6822F010020A600A6842F002
:100CC00020020A600A6822F040020A600A6842F0C4
:100CD00080020A60816841F400318160206840F43C
:100CE00000502060206820F480502060606820F46C
:100CF00080506060606820F400506060206820F4DC
:100D000000402060122044F8040C206840F02000CD
:100D10002060206840F004002060262000F0B0F938
:100D2000206840F00800206010BD000010B543F6B8
:100D30001C00C4F20200016844F60C0441F00201F8
:100D4000016040F20041C4F202014A6AC4F20004A8
:100D500042F4E0624A624A6A42F4E0424A620A6845
:100D600022F480120A600A6842F400120A600A68DB
:100D700022F480020A600A6842F400020A60816874
:100D800041F480218160206840F400502060206898
:100D900020F480502060606820F4805060606068BB
:100DA00020F400506060206820F400402060122091
:100DB00044F8040C206840F020002060206840F0D7
:100DC00004002060272000F05BF9206840F0080054
:100DD000206010BD43F61C00C4F20200016841F01F
:100DE000010101600020C4F20200016841F4806149
:100DF0000160016821F400610160704780B501283D
:100E00000FD0F0B9022924D0012924D000291CBF19
:100E1000022080BD1020C4F202000068C0F3401020
:100E20001AE0481E02283CBF032080BD00291CBFD9
:100E3000022080BD012A06D04AB900F011F8002036
:100E400080BD012080BD00F017F8002080BD042087
:100E500080BD402000E001201870002080BD00000F
:100E60001820C4F20200016841F02001016001680D
:100E700041F40011016070471820C4F202000168BB
:100E800041F400110160016841F0200101607047E8
:100E900010B540F61414C2F20004206801300B288B
:100EA000206038BF10BDFFF781FC0020206010BD1E
:100EB00070470000B0B582B043F224340025C0F280
:100EC00003040195FFF75AFC01950199601C8142CA
:100ED00006DA00BF01990131019101998142F9DBE4
:100EE000FFF726FC01950198A04205DA0198013030
:100EF00001900198A042F9DB02B0B0BDB0B544F258
:100F00000044C4F200042068800658BFB0BD40F61B
:100F10001005C2F200056268287840F21071C2F232
:100F200000010A54421C2A7063680D2B09D102305B
:100F3000D2B20A232870C0B28B5400F07DF8002092
:100F40002870206820F020002060B0BDF0B581B08E
:100F500044F60004C4F200042068800664D540F61C
:100F60001115C2F200056068297840F611034E1C85
:100F7000C2F20003F2B25854D01810F8011C2E70BF
:100F80000A2924D110F8023C0D2B07D110F8033C9C
:100F90004B2B03D110F8043C4F2B0DD00A2916D14E
:100FA00010F8023C0D2B12D110F8033C522B0ED13D
:100FB00010F8043C4F2B0AD140F61101C2F2000197
:100FC000002000230026FFF71FFD2E7028E0442993
:100FD0000ED110F8023C502B0AD110F8033C492BDB
:100FE00006D140F65110C2F200000121017017E055
:100FF0000A2915D140F65116C2F2000631780129AE
:101000000ED110F8020C0D280AD140F61101C2F2DF
:101010000001012000230027FFF7F6FC2F70377036
:10102000206820F02000206001B0F0BD02681206A8
:10103000FCD541607047000070B5002808BF70BD46
:1010400044F6000504464E1EC4F2000516F8011FC2
:101050002846FFF7EBFF013CF8D170BD70B50028C2
:1010600008BF70BD44F2004504464E1EC4F20005A0
:1010700016F8011F2846FFF7D9FF013CF8D170BDD3
:1010800000F01F00012101FA00F04EF20411CEF22F
:1010900000010860704700008EB04FF6687043F2A0
:1010A0002434C0F21F00C0F20304FFF7CDFDFFF7A8
:1010B000E3FDFFF78FFEFFF71DFBFFF71BFD00268B
:1010C0000D96FFF767FB0D960D98A04203DA0D9879
:1010D00001300D90F8E7FFF7EDFE41F2A413C0F6E2
:1010E0000003187C40F6181CC2F2000C8CF81000AB
:1010F00010258CF83050DCE90450D3E900E70B9060
:10110000DCF818000CF11C0B0A90DCF82C00D3E979
:1011100002230C90DCE90C01CCE900E7CDE90801E1
:101120000B9802A901900A989BE8000F81E8010F33
:1011300039460C9F7046CCF80820CCF80C3000954E
:101140000797FFF785FC00BF0D960D98A042FBDACC
:101150000D9801300D900D98A042F9DBF4E730387E
:101160000A2801D201207047002070473031323305
:1011700034353637383941424344454640305800CB
:1011800030313233343536373839616263646566FD
:10119000403078003139322E3136382E312E34003D
:1011A0004F4B0000434C49454E54204F4E4C494E46
:1011B00045210D0A0000000045524153452053557A
:1011C000434345535346554C210D0A005752495449
:1011D00045205355434345535346554C210D0A0072
:1011E0000012000800000020AC06000060010008AA
:1011F00074120008B0060020A8080000BC01000816
:1012000002FF0A01FF01FF01FF01FF813201062BEE
:101210004154720D0A320513A011080828084154E0
:101220002B5253543B8A04380C28474D52387A08C5
:10123000380B2A4531A98A067008092343495043CF
:101240004C4F53453FBA0D38000C1F535441525474
:101250003D2255445022CA11380426454E44299453
:1012600029381A940415C801C90135E00108045A47
:04127000FF01410039
:0400000508000215D8
:00000001FF
